:02000002B0004C
:1040000000400B00C65D0B00000006000C0005021E
:084010000401B41400000000DB
:04401800DC5A0B0063
:10401C0081F0004102E000BF83F0004330B54FEA6D
:10402C0041044FEA430594EA050F08BF90EA020FDA
:10403C001FBF54EA000C55EA020C7FEA645C7FEA6D
:10404C00655C00F0E2804FEA5454D4EB5555B8BF90
:10405C006D420CDD2C4480EA020281EA030382EA01
:10406C00000083EA010180EA020281EA0303362D93
:10407C0088BF30BD11F0004F4FEA01314FF4801C66
:10408C004CEA113102D0404261EB410113F0004F78
:10409C004FEA03334CEA133302D0524263EB43032F
:1040AC0094EA050F00F0A780A4F10104D5F1200ECD
:1040BC000DDB02FA0EFC22FA05F2801841F1000128
:1040CC0003FA0EF2801843FA05F359410EE0A5F1FC
:1040DC0020050EF1200E012A03FA0EFC28BF4CF02D
:1040EC00020C43FA05F3C01851EBE37101F00045E3
:1040FC0007D54FF0000EDCF1000C7EEB00006EEBF0
:10410C000101B1F5801F1BD3B1F5001F0CD3490879
:10411C005FEA30004FEA3C0C04F101044FEA4452D0
:10412C0012F5800F80F09A80BCF1004F08BF5FEA57
:10413C00500C50F1000041EB045141EA050130BD37
:10414C005FEA4C0C404141EB0101013C28BFB1F549
:10415C00801FE9D291F0000F04BF01460020B1FA94
:10416C0081F308BF2033A3F10B03B3F120020CDA67
:10417C000C3208DD02F1140CC2F10C0201FA0CF045
:10418C0021FA02F10CE002F11402D8BFC2F1200CAA
:10419C0001FA02F120FA0CFCDCBF41EA0C01904060
:1041AC00E41AA2BF01EB0451294330BD6FEA0404A9
:1041BC001F3C1CDA0C340EDC04F11404C4F1200294
:1041CC0020FA04F001FA02F340EA030021FA04F3A6
:1041DC0045EA030130BDC4F10C04C4F1200220FAFD
:1041EC0002F001FA04F340EA0300294630BD21FA3B
:1041FC0004F0294630BD94F0000F83F4801306BF01
:10420C0081F480110134013D4EE77FEA645C18BFF4
:10421C007FEA655C29D094EA050F08BF90EA020F8B
:10422C0005D054EA000C04BF1946104630BD91EA83
:10423C00030F1EBF0021002030BD5FEA545C05D186
:10424C004000494128BF41F0004130BD14F58004C5
:10425C003CBF01F5801130BD01F0004545F0FE4139
:10426C0041F470014FF0000030BD7FEA645C1ABF6E
:10427C00194610467FEA655C1CBF0B46024650EAA5
:10428C00013406BF52EA033591EA030F41F40021D1
:10429C0030BD00BF90F0000F04BF0021704730B557
:1042AC004FF4806404F132044FF000054FF000012C
:1042BC0050E700BF90F0000F04BF0021704730B5ED
:1042CC004FF4806404F1320410F0004548BF4042C2
:1042DC004FF000013EE700BF42004FEAE2014FEA17
:1042EC0031014FEA02701FBF12F07F4393F07F4FF2
:1042FC0081F06051704732F07F4208BF704793F0F5
:10430C007F4F04BF41F40021704730B54FF4607407
:10431C0001F0004521F000411CE700BF50EA01020A
:10432C0008BF704730B54FF000050AE050EA0102B3
:10433C0008BF704730B511F0004502D5404261EB23
:10434C0041014FF4806404F132045FEA915C3FF464
:10435C00D8AE4FF003025FEADC0C18BF03325FEA01
:10436C00DC0C18BF033202EBDC02C2F1200300FAB2
:10437C0003FC20FA02F001FA03FE40EA0E0021FAD7
:10438C0002F11444BDE600BF70B54FF0FF0C4CF4C5
:10439C00E06C1CEA11541DBF1CEA135594EA0C0F77
:1043AC0095EA0C0F00F0DEF82C4481EA030621EAB2
:1043BC004C5123EA4C5350EA013518BF52EA0335ED
:1043CC0041F4801143F4801338D0A0FB02CE4FF09F
:1043DC000005E1FB02E506F00042E0FB03E54FF0CF
:1043EC000006E1FB03569CF0000F18BF4EF0010EC7
:1043FC00A4F1FF04B6F5007F64F5407404D25FEAC3
:10440C004E0E6D4146EB060642EAC62141EA555175
:10441C004FEAC52040EA5E504FEACE2EB4F1FD0CB7
:10442C0088BFBCF5E06F1ED8BEF1004F08BF5FEA35
:10443C00500E50F1000041EB045170BD06F00046E7
:10444C0046EA010140EA020081EA0301B4EB5C0494
:10445C00C2BFD4EB0C0541EA045170BD41F480118C
:10446C004FF0000E013C00F3AB8014F1360FDEBFB1
:10447C00002001F0004170BDC4F10004203C35DA8D
:10448C000C341BDC04F11404C4F1200500FA05F310
:10449C0020FA04F001FA05F240EA020001F00042B1
:1044AC0021F0004110EBD37021FA04F642EB060127
:1044BC005EEA430E08BF20EAD37070BDC4F10C0451
:1044CC00C4F1200500FA04F320FA05F001FA04F215
:1044DC0040EA020001F0004110EBD37041F1000101
:1044EC005EEA430E08BF20EAD37070BDC4F120050C
:1044FC0000FA05F24EEA020E20FA04F301FA05F274
:10450C0043EA020321FA04F001F0004121FA04F21B
:10451C0020EA020000EBD3705EEA430E08BF20EAEB
:10452C00D37070BD94F0000F0FD101F00046400025
:10453C0041EB010111F4801F08BF013CF7D041EAA7
:10454C00060195F0000F18BF704703F000465200AB
:10455C0043EB030313F4801F08BF013DF7D043EA7C
:10456C000603704794EA0C0F0CEA135518BF95EA32
:10457C000C0F0CD050EA410618BF52EA4306D1D1B9
:10458C0081EA030101F000414FF0000070BD50EAD8
:10459C00410606BF1046194652EA430619D094EA62
:1045AC000C0F02D150EA013613D195EA0C0F05D14C
:1045BC0052EA03361CBF104619460AD181EA0301A0
:1045CC0001F0004141F0FE4141F470014FF0000058
:1045DC0070BD41F0FE4141F4780170BD70B54FF0F3
:1045EC00FF0C4CF4E06C1CEA11541DBF1CEA135573
:1045FC0094EA0C0F95EA0C0F00F0A7F8A4EB050455
:10460C0081EA030E52EA03354FEA013100F088804B
:10461C004FEA03334FF0805545EA131343EA126314
:10462C004FEA022245EA111545EA10654FEA0026C9
:10463C000EF000419D4208BF964244F1FD0404F582
:10464C00407402D25B084FEA3202B61A65EB0305DE
:10465C005B084FEA32024FF480104FF4002CB6EB9B
:10466C00020E75EB030E22BFB61A754640EA0C001B
:10467C005B084FEA3202B6EB020E75EB030E22BF5B
:10468C00B61A754640EA5C005B084FEA3202B6EB9C
:10469C00020E75EB030E22BFB61A754640EA9C005B
:1046AC005B084FEA3202B6EB020E75EB030E22BF2B
:1046BC00B61A754640EADC0055EA060E18D04FEAE9
:1046CC00051545EA16754FEA06164FEAC30343EA89
:1046DC0052734FEAC2025FEA1C1CC0D111F4801F56
:1046EC000BD141EA00014FF000004FF0004CB6E74F
:1046FC0011F4801F04BF01430020B4F1FD0C88BFEE
:10470C00BCF5E06F3FF6AFAEB5EB030C04BFB6EBF8
:10471C00020C5FEA500C50F1000041EB045170BDEB
:10472C000EF0004E4EEA113114EB5C04C2BFD4EB18
:10473C000C0541EA045170BD41F480114FF0000E9C
:10474C00013C90E645EA060E8DE60CEA135594EA18
:10475C000C0F08BF95EA0C0F3FF43BAF94EA0C0F1B
:10476C000AD150EA01347FF434AF95EA0C0F7FF490
:10477C0025AF104619462CE795EA0C0F06D152EAE4
:10478C0003353FF4FDAE1046194622E750EA4106C8
:10479C0018BF52EA43067FF4C5AE50EA41047FF4D9
:1047AC000DAF52EA43057FF4EBAE12E74FF0FF3C3E
:1047BC0006E000BF4FF0010C02E000BF4FF0010C0F
:1047CC004DF804CD4FEA410C7FEA6C5C4FEA430C88
:1047DC0018BF7FEA6C5C1BD001B050EA410C0CBFD7
:1047EC0052EA430C91EA030F02BF90EA020F002039
:1047FC00704710F1000F91EA030F58BF994208BFA0
:10480C0090422CBFD8176FEAE37040F0010070475C
:10481C004FEA410C7FEA6C5C02D150EA013C07D1B3
:10482C004FEA430C7FEA6C5CD6D152EA033CD3D0FE
:10483C005DF8040B704700BF8446104662468C46F8
:10484C001946634600E000BF01B5FFF7B7FF00282B
:10485C0048BF10F1000F01BD4DF808EDFFF7F4FF54
:10486C000CBF012000205DF808FB00BF4DF808EDDF
:10487C00FFF7EAFF34BF012000205DF808FB00BF02
:10488C004DF808EDFFF7E0FF94BF012000205DF824
:10489C0008FB00BF4DF808EDFFF7CEFF94BF0120D9
:1048AC0000205DF808FB00BF4DF808EDFFF7C4FFD2
:1048BC0034BF012000205DF808FB00BF4FEA410C1B
:1048CC007FEA6C5C02D150EA013C0AD14FEA430CFE
:1048DC007FEA6C5C02D152EA033C02D14FF000003B
:1048EC0070474FF0010070474FEA410212F5001279
:1048FC0015D211D56FF47873B3EB625212D94FEA1B
:10490C00C12343F0004343EA505311F0004F23FA04
:10491C0002F018BF404270474FF00000704750EA59
:10492C00013005D111F0004008BF6FF00040704716
:10493C004FF00000704700BF4A0011D212F5001270
:10494C0011D20DD56FF47873B3EB62520ED44FEADB
:10495C00C12343F0004343EA505323FA02F070475B
:10496C004FF00000704750EA013002D14FF0FF3099
:10497C0070474FF000007047034613F8012B002AD4
:10498C00FBD1181A0138704709480A49884208B502
:10499C0005D0094A824202D0121A00F0EFFF0748F4
:1049AC00074A0021121A00F0F7FF014808BD00BFAA
:1049BC003CE603202C5D0B00A8E60320A8E60320B0
:1049CC00F0E7032070B5074E074C00F0B7FEA41BB0
:1049DC00A4080025AC4200D170BD56F8043B9847A2
:1049EC000135F7E7E45C0B00085D0B0000F013B831
:1049FC0008B500F021F8BDE8084000F057BE00F003
:104A0C00D9B900F0DFB90078B0FA80F040097047EE
:104A1C0001230370704708B500210E2000F0FEFE44
:104A2C000121052000F0FAFE00F0BAFDBDE80840B7
:104A3C004FF4165100F0A8BD10B50E2000F0FFFE8B
:104A4C0007EE900A064CF8EEE77AC4ED007A00F017
:104A5C00A7FD94ED000A0221BDE8104000F0B5BCA2
:104A6C00B4E6032010B5074B074A9A600024C3E94B
:104A7C000044032000F012F921460120BDE810404B
:104A8C0000F014B9A8E603200000FFFF08B5024BA4
:104A9C001B685B6C019308BD4802030008B5024B10
:104AAC001B685B68019308BD1802030008B5024B34
:104ABC001B685B69019308BD1802030008B5024B23
:104ACC001B685B68019308BD2C02030008B5024B00
:104ADC001B689B68019308BD2C02030008B5024BB0
:104AEC001B681B6B019308BD2C02030008B5024B1D
:104AFC001B681B6A019308BD2802030008B5024B12
:104B0C001B685B6A019308BD2802030008B5024BC1
:104B1C001B689B6A019308BD2802030008B5024B71
:104B2C001B68DB6A019308BD2802030008B5024B21
:104B3C001B681B6B019308BD2802030008B5024BD0
:104B4C001B685B6B019308BD2802030008B5024B80
:104B5C001B681B6C019308BD2802030008B5024BAF
:104B6C001B685B69019308BD6402030008B5024B26
:104B7C001B689B68019308BD6802030008B5024BD3
:104B8C001B68DB68019308BD6802030008B5024B83
:104B9C001B68DB69019308BD3002030008B5024BAA
:104BAC001B681B6A019308BD3002030008B5024B59
:104BBC001B68DB68019308BD3C02030008B5024B7F
:104BCC001B681B69019308BD3C02030008B5024B2E
:104BDC001B685B69019308BD3C02030008B5024BDE
:104BEC001B689B69019308BD3C02030008B5024B8E
:104BFC001B68DB69019308BD3C02030008B5024B3E
:104C0C001B681B6A019308BD3C02030008B5024BEC
:104C1C001B689B6A019308BD3C02030008B5024B5C
:104C2C001B681B6C019308BD3C02030008B5024BCA
:104C3C001B681B68019308BD4C02030008B5024BAE
:104C4C001B685B68019308BD4C02030008B5024B5E
:104C5C001B681B69019308BD4C02030008B5024B8D
:104C6C001B685B69019308BD4C02030008B5024B3D
:104C7C001B689B69019308BD4C02030008B5024BED
:104C8C001B68DB69019308BD4C02030008B5024B9D
:104C9C001B681B6A019308BD4C02030008B5024B4C
:104CAC001B685B68019308BD2002030008B5024B2A
:104CBC001B68DB6A019308BD2002030008B5034B97
:104CCC001B68D3F88830019308BD00002002030054
:104CDC0008B5034B1B68D3F89430019308BD000052
:104CEC002002030008B5024B1B68DB6B019308BD67
:104CFC004402030008B5024B1B685B68019308BDB6
:104D0C004002030008B5024B1B689B68019308BD69
:104D1C004002030008B5024B1B68DB68019308BD19
:104D2C004002030008B5024B1B681B69019308BDC8
:104D3C004002030008B5024B1B685B69019308BD78
:104D4C004002030008B5024B1B689B69019308BD28
:104D5C004002030008B5024B1B68DB69019308BDD8
:104D6C004002030008B5024B1B681B6A019308BD87
:104D7C004002030008B5024B1B681B6B019308BD76
:104D8C004002030008B5024B1B685B6B019308BD26
:104D9C004002030008B5024B1B681B6C019308BD55
:104DAC004002030008B5024B1B685B6C019308BD05
:104DBC004002030008B5024B1B681B68019308BD39
:104DCC001C02030008B5024B1B685B68019308BD0D
:104DDC001C02030008B5024B1B681B6C019308BD39
:104DEC001C02030008B5024B1B685B6C019308BDE9
:104DFC001C020300024800230360FFF747BE00BFFC
:104E0C00B8E60320002240681146FFF7ABBF002232
:104E1C0040681146FFF7B6BF40680022FFF7AABFF3
:104E2C004068002281F00101FFF794BF0023406825
:104E3C001A461946FFF786BF002340681A461946E2
:104E4C00FFF778BF002240681146FFF76BBF0022C6
:104E5C0040681146FFF756BF406800220221FFF759
:104E6C0059BF002340681A46FFF744BF024B032288
:104E7C005A60024A1A607047BCE60320F85A0B00CD
:104E8C007047F8B5064615460C468F18BC4206D03E
:104E9C00336814F8011B9B6830469847F6E72846A0
:104EAC00F8BD007C0022FFF721BE007C0021FFF73B
:104EBC0025BE007C0021FFF729BE007C0021FFF7F6
:104ECC002DBE007C0021FFF731BE10B51421044625
:104EDC00FFF797FD204610BD38B5044615464FF434
:104EEC007A730022C4E90123094B2174084623601C
:104EFC002946FFF72BFEBF3008D16B69DB0705D5C0
:104F0C006868FFF75FFFE868FFF75CFF204638BD75
:104F1C00345B0B00704710B518210446FFF771FD88
:104F2C00204610BDF0B5037D062B8DB00E4600F16A
:104F3C0004074FF0000412D000F1080515F8011D0C
:104F4C000A22304600F04FF9AF42044419D0002C2D
:104F5C00F4D02E21304600F037F90444EEE72F232D
:104F6C006A4639460A208DF80040FFF7F7FD68467F
:104F7C00FFF702FD33680246DB6869463046984706
:104F8C00044620460DB0F0BD10B5054B0446112269
:104F9C0040F8043B002100F0FFFC204610BD00BF90
:104FAC005C5B0B000346074A10B543F8042B01F178
:104FBC00100251F8044B43F8044B9142F9D10A7892
:104FCC001A7010BD5C5B0B0010B59DF8084044EAEC
:104FDC00032343EA024242EA016104234160037560
:104FEC0010BD000007B5064B0360CB7800938B789F
:104FFC004A780978FFF7E8FF03B05DF804FB00BFBF
:10500C005C5B0B00014B024A1A607047C4E603203C
:10501C00685B0B00002340681A46FFF76BBE4068C4
:10502C0000220221FFF776BE002240681146FFF7EE
:10503C0069BE002240681146FFF774BE0023406829
:10504C001A461946FFF776BE002340681A461946E1
:10505C00FFF778BE40680021FFF79CBE4068002136
:10506C00FFF7A0BE4068002281F00101FFF772BE7D
:10507C0040680022FFF77EBE002240681146FFF711
:10508C0081BE002240681146FFF76CBE2DE9F0434B
:10509C0095B014460D460746FFF776FF00211C22FB
:1050AC000DA8009100F078FC40230C9320466B4631
:1050BC000CAA0021FFF762FD044600284BD10246E2
:1050CC0001216868FFF72EFE02218046224668689F
:1050DC00FFF728FE009E81462146002E3BD000297A
:1050EC0039D17368022B03D00A2B11D0F669F4E77F
:1050FC00B8F1000FFAD0716906A8043107ADFFF7BB
:10510C0071FF0FCD3C1D0FC42B6823704146EDE79A
:10511C00B9F1000FEAD07469102201A800F03CFC30
:10512C0006238DF8143001AD04F108031834186807
:10513C0059682A4603C20833A3421546F7D101A980
:10514C0006A807ADFFF72EFF0FCD3C1D0FC42B6833
:10515C0023704946CAE70098FFF708FD384615B09A
:10516C00BDE8F083024B034A1A6000225A60704774
:10517C00C8E60320745B0B00F8B506460D468F1885
:10518C000024BD420CD0336815F8011B9B683046D7
:10519C009847031E01DB1C44F3E7002C08BF1C4698
:1051AC002046F8BD13B50446084659B10191FFF7E6
:1051BC00E3FB23680199DB680246204602B0BDE898
:1051CC001040184702B010BD03689B68184738B5EB
:1051DC000D210546FFF7F8FF0A2104462846FFF784
:1051EC00F3FF204438BD30B58BB00023012A8DF875
:1051FC00243098BF0A2209AC0D46B1FBF2F101FB39
:10520C00125303F0FF03092B94BF30333733DBB257
:10521C00AA4204F8013DEFD92146FFF7C3FF0BB0BA
:10522C0030BD00002DE9F74F55EC104B06460F46EC
:10523C0010EE102A10EE100A2B462946FFF73EFB03
:10524C0040B153493046FFF7ADFF8246504603B09C
:10525C00BDE8F08F25F000494E4B4FF0FF32204651
:10526C004946FFF72BFB48B94A4B4FF0FF3220461B
:10527C004946FFF705FB08B94749E3E7474B4FF0B1
:10528C00604220462946FFF70FFB08B14449D9E795
:10529C00444B4FF0604220462946FFF7E7FA0028BE
:1052AC00F4D10022002320462946FFF7DFFAD0B1C3
:1052BC002D213046FFF788FF05F1004382461D463D
:1052CC003949DFF8EC904FF0000B00204FF000084C
:1052DC005FFA8BF39F4208D942464B46FFF77EF9A3
:1052EC000BF1010BF4E78246EAE722462B46FEF768
:1052FC0095FE0D460446FFF71FFB8046FEF7CAFFDE
:10530C0002460B4620462946FEF786FE0A22044634
:10531C000D4630464146FFF766FF8244002F95D07C
:10532C002249DFF88C903046FFF73CFF4FF0000825
:10533C008244002F8AD042464B4620462946FFF72E
:10534C0023F804460D46FFF7CFFAB0F1000B1CDA38
:10535C002D213046FFF738FFCBF1000103460A221E
:10536C0030460193FFF73FFF019B18448244584697
:10537C00FEF7A0FF02460B4620462946FEF74CFEE0
:10538C00013F04460D46FFB2D3E759460023E6E73A
:10539C00A85B0B00FFFFEF7FAC5B0B00FFFFEF4147
:1053AC00B05B0B00FFFFEFC10000E03FB45B0B00F4
:1053BC000000244038B5C9B20546FFF733FF044658
:1053CC002846FFF704FF204438BD38B5044610EEDC
:1053DC00100A0D46FEF780FF41EC100B29462046C3
:1053EC00BDE83840FFF7E6BF014B00229A607047DA
:1053FC00D0E6032010B5044608462170FFF7C6FB23
:10540C0000236360204610BD054B02221A60054B39
:10541C00054A9A600020C3E90000FFF73FBC00BFBB
:10542C00ECE60320E0E603200000FFFF024B1A68C5
:10543C00024B1A60704700BF3CE60320F0E60320E5
:10544C0070474174704708B5007CFFF7DFFB20EA1A
:10545C00E07008BD08B5007CFFF7B0FB20EAE070F7
:10546C0008BD08B5007CFFF7B9FB40EAE07008BD49
:10547C0008B5007CFFF7AAFB40EAE07008BD007C91
:10548C00FFF7B4BB37B5457C04462DB1207C03B087
:10549C00BDE83040FFF78ABB007C0191FFF7B6FBFB
:1054AC0000280199F2DC284603B030BD10B5142158
:1054BC000446FFF7A6FA204610BD000010B54FF4C5
:1054CC007A730446084611460022C4E90123044BB2
:1054DC002360012320746374FFF7A0FB204610BDEA
:1054EC00DC5B0B00417470477047704708B50021B6
:1054FC00007CFFF7BBFB40EAE07008BD08B501215A
:10550C00007CFFF7B3FB40EAE07008BD08B5007CF7
:10551C00FFF7A4FB20EAE07008BD08B5007CFFF79C
:10552C0095FB20EAE07008BD13B50446007C0191A0
:10553C00FFF794FB0028019901DC607C20B1207CF2
:10554C00FFF79CFB20EAE07002B010BD007CFFF777
:10555C009DBB10B514210446FFF753FA204610BD2D
:10556C0010B54FF47A73044608460021C4E90113C0
:10557C00044B23600123207463741146FFF756FB20
:10558C00204610BD0C5C0B00007C0022FFF756BBC4
:10559C0010B514220446002100F0FEF9204610BD7F
:1055AC0010B50F4C88B003A8FFF7F2FF2178BFF3BA
:1055BC005B8F11F001010FD120460191FFF723FA07
:1055CC00019948B103AA0748FFF7CAFF2046FFF725
:1055DC001FFA054800F0CCF9024808B010BD00BF16
:1055EC00F4E60320F8E60320F5540B000022406893
:1055FC001146FFF797BB002240681146FFF7B2BB7C
:10560C00002240681146FFF7BDBB40680022FFF73F
:10561C00B1BB4068002281F00101FFF79BBB002366
:10562C0040681A461946FFF78DBB002340681A469E
:10563C001946FFF77FBB002240681146FFF762BB9B
:10564C00406800220221FFF765BB002340681A4620
:10565C00FFF750BB024B04225A60024A1A60704793
:10566C000CE703203C5C0B00014B1860704700BF3B
:10567C0040E6032008B50B4B43B1FFF791FF0368DD
:10568C001B699847002801DDAFF30080064B43B13E
:10569C0000F048F903681B699847002801DDAFF357
:1056AC00008008BD000000000000000008B5FFF7F6
:1056BC00E1FFFFF7FBF9014B186008BD28E7032059
:1056CC000548064A064908B5121A00F057F9054B69
:1056DC00054A1A6008BD00BF00F4032004F403203F
:1056EC00985D0B0000F403201E1C279A07B50023BD
:1056FC0000931A466FF07701FFF7EAFA03B05DF8F2
:10570C0004FB000007B543880A2B08D0502B0BD1A3
:10571C00094B1B684BB103B05DF804EB1847FFF75E
:10572C00E5FF03B05DF804FB002300931A466FF00D
:10573C007701FFF7CDFAF4E718E7032010B512480C
:10574C000021FFF74FFB114B1A68114B9A42114B7A
:10575C000CBF012200221A7001D0FFF7B1FFFFF736
:10576C009DF9044600F020F90B4B13B12046AFF322
:10577C00008000210848FFF7B5FABDE81040074843
:10578C000021FFF79BBA00BF75560B0000F40320F5
:10579C001E1C279A14E703200000000011570B0071
:1057AC00232813B502D9002002B010BDA0F10B03C1
:1057BC00022B1AD8174C2178BFF35B8F11F0010123
:1057CC000BD120460191FFF71EF9019928B112481F
:1057DC00FFF710FE2046FFF71BF90F4B1878FFF769
:1057EC00DDF90028DFD10120DEE7012809D800F01F
:1057FC0059F80021007CFFF7A1F980F00100C0B23C
:10580C00D2E709380128EED800F08CF8007CFFF7BD
:10581C00F5F9F2E71CE7032020E70320232838B52D
:10582C0004460D460AD8FF2908D0FFF7B9FF28B166
:10583C0029462046BDE83840FFF748B938BD0D2849
:10584C0010B504469CBF0E34A4B22046FFF7A8FF47
:10585C0050B103212046FFF731F9032804D120462B
:10586C00BDE81040FFF73AB9002010BD70470000AA
:10587C0038B50A4B036001230446436108492020D4
:10588C0000F074F8202560600549A560284600F0FA
:10589C006DF8C4E90305204638BD00BF18000100AF
:1058AC00705C0B0030B50E4D2978BFF35B8F11F097
:1058BC00010487B011D12846FFF7A5F868B16846F6
:1058CC00FFF7D6FF6A4621460648FFF705FB284638
:1058DC00FFF79EF8044800F04BF8024807B030BDC3
:1058EC002CE7032030E7032079580B0070470000A9
:1058FC0038B5044614252A46002100F04DF82580C1
:10590C004025074925812846258200F02FF80449B7
:10591C006060284600F02AF8E060204638BD00BFE1
:10592C00705C0B0030B50E4D2978BFF35B8F11F016
:10593C00010487B011D12846FFF765F868B101A8BA
:10594C00FFF7D6FF01AA21460648FFF7B7FD284608
:10595C00FFF75EF8044800F00BF8024807B030BDC2
:10596C0044E7032048E70320F9580B00FFF747B83A
:10597C00002301461A46184600F044B80A449142E6
:10598C0000F1FF3300D1704710B511F8014B03F84B
:10599C00014F9142F9D110BD02440346934200D10C
:1059AC00704703F8011BF9E738B5104B1D68AB6B5A
:1059BC000446B3B91820FFF7FDF90246A86320B9D5
:1059CC000B4B0C484221FFF705FA0B490B4BC0E976
:1059DC0000130B4B83600B23838100210120C2E950
:1059EC000401AB6B00221C615A6138BD40E60320F8
:1059FC00715C0B00885C0B000E33CDAB34126DE682
:105A0C00ECDE05002DE9F843DFF8B8800646D8F83F
:105A1C0000001F460D46914600F056F8254B1C68B9
:105A2C0034B9254C1C60254B13B11B68C4F8883065
:105A3C0063681F2B07DDD8F8000000F047F84FF023
:105A4C00FF30BDE8F8834EB3D4F8880088B91C4BFE
:105A5C0023B9D8F8000000F038F8F0E74FF4847060
:105A6C00FFF7A8F90028F4D00023C0E94033C4F8AC
:105A7C008800636840F8239001229A4000EB830170
:105A8C00D0F800311343C0F80031022EC1F88070F9
:105A9C0002BFD0F804311343C0F804316368D8F85E
:105AAC0000005A1C0233626044F8235000F00EF8D8
:105ABC000020C6E7E8E703205CE7032000000000B5
:105ACC00C14D0B00A4E603207047704770470000DF
:105ADC0095490B00D1490B00F9490B00FD490B000E
:105AEC000000000000000000000000006F4E0B00E2
:105AFC00654E0B005B4E0B00514E0B00454E0B00E0
:105B0C00394E0B0061500B0069500B002D4E0B00F1
:105B1C00254E0B001B4E0B00114E0B0099500B0029
:105B2C0000000000000000008D4E0B00D74E0B0053
:105B3C00AF4E0B008F4E0B00B74E0B00BF4E0B0041
:105B4C00C74E0B00CF4E0B00000000000000000001
:105B5C00314F0B00214F0B00234F0B006170700075
:105B6C00000000000000000021500B002B500B0027
:105B7C0035500B003F500B0049500B0055500B009B
:105B8C0061500B0069500B0071500B007D500B00E5
:105B9C0085500B008F500B0099500B006E616E00FE
:105BAC00696E66006F7666002E0025592D256D2DC9
:105BBC0025645425483A254D3A2553257A006173BE
:105BCC006374696D650000000000000000000000B7
:105BDC004D540B00B9540B0091540B0085510B0024
:105BEC0061540B007D540B006F540B008B540B0055
:105BFC004F540B0053540B00000000000000000039
:105C0C00F7540B005F550B0035550B0085510B00FD
:105C1C0027550B00F9540B0009550B0059550B0077
:105C2C0019550B00F1540B0000000000000000009F
:105C3C0057560B004D560B0043560B00F9550B00F5
:105C4C0037560B002B560B0061500B0069500B00A4
:105C5C001F560B0017560B000D560B0003560B006E
:105C6C0099500B00005245454E54206D616C6C6F81
:105C7C006320737563636565646564002F746D7070
:105C8C002F6A656E6B696E732D4743432D31302D32
:105C9C00706970656C696E652D34385F32303230E6
:105CAC00313132345F313630363138303633392F8A
:105CBC007372632F6E65776C69622F6E65776C6992
:105CCC00622F6C6962632F7374646C69622F7261EA
:105CDC006E642E6300000000714A0B00014E0B0035
:105CEC00794E0B0011500B0071510B00F5530B004A
:0C5CFC0015540B0039540B0061560B00CE
:105D0800040000001400000003000000474E550086
:105D18007999927F43B2E9D00EDF36140E3DCE8ECC
:045D28004FCF8212C5
:105D2C00CA5B0B0044E603200000000000000000EA
:105D3C000000000000000000000000000000000057
:105D4C000000000000000000000000000000000047
:105D5C000000000000000000000000000000000037
:105D6C000000000000000000000000000000000027
:105D7C000000000000000000000000000000000017
:0C5D8C000000000000000000ECE7032015
:045D98000000000007
:105DA20000000102030405060708090A0B0C0D0E88
:105DB2000F101112131415161718191A1B1C1D1E79
:045DC2001F20280076
:045DC60078563412C5
:04000003B000401CED
:00000001FF
